:02000002D0002C
:1040000000400D00A4650D00000006000C00050135
:08401000040179050000000025
:0440180078610D00BE
:1040200009480A49884208B505D0094A824202D0A7
:10403000121A02F053F80748074A0021121A02F038
:1040400058F8014808BD00BF38E4032010650D0092
:10405000A4E40320A8E40320F4E7032070B500F0F3
:104060005BFE074C074BE41AA40800251E46A54238
:1040700004D056F8253098470135F8E770BD00BFE9
:1040800008650D00C4640D0000F072B808B500F0BA
:104090002DFABDE8084000F00DBE00F047BC00F06E
:1040A0004DBC00F04BBC0078B0FA80F0400970477E
:1040B00001230370704700F06DBA000010B50E497F
:1040C000044600F029FD08B100220EE00B4920460D
:1040D00000F022FD18B10A4B0120186010BD0949FB
:1040E000204600F019FD20B10222054B1A60012084
:1040F00010BD4FF0FF3010BD8C610D00DD620D0072
:10410000C0E4032091610D002DE9F047814694B091
:1041100014469A460D4621B1084602F025F8074696
:1041200000E00F4624B1204602F01EF8064600E0EB
:1041300026464FF04C084246002101A801F0D9FF65
:104140001C9B8DF81930002301AA1946D9F80400E8
:10415000CDF8048002950397049405968DF818A075
:1041600000F0B4FBB0FA80F0400914B0BDE8F0876D
:1041700073B5274D274A2849284E0024009403236D
:104180002846FFF7C1FF00940323254A2549284606
:10419000FFF7BAFF2346092223492448244D00F0A3
:1041A000ADFB234602222349234800F0A7FB234608
:1041B00002222249224800F0A1FB224A2249234838
:1041C00000F0DAFD00F0C4FE4FF4165100F0B4FE2A
:1041D0004FF4FA7000F030FD2888012101F074F9E5
:1041E0003088012101F070F93088012101F07DF95A
:1041F0002146288801F079F921460F2001F064F961
:104200000121072002B0BDE8704001F05DB900BF98
:1042100008E7032095610D00A0610D0038E403203C
:10422000AE610D00BB610D00B0E40320C6610D005E
:10423000B8E40320C8E40320CB610D00C0E40320F0
:10424000D0610D00D5610D00BD400D004D4D0D003C
:1042500070B51F4C25682DB92946072001F045F996
:104260001C4B1D602568012D05D12946072001F052
:104270003CF9184B1D602368022B28D1164D174CB2
:10428000D5E9000101F0F4FE2668331A002BB8BF0F
:104290005B42012B1BDD864209DA0E4E3368012B8F
:1042A00005D10021072001F020F900233360D5E972
:1042B000000101F0DDFE2368984208DA054C23680E
:1042C0002BB90121072001F010F90123236070BDF3
:1042D000C0E40320C8E40320B0E40320BCE40320CE
:1042E0002DE9F04100240746904625468EB245450B
:1042F00011DA0121304601F0F8F80A2000F09CFCA8
:10430000B8B201F00BF9640004440021304601F01A
:10431000ECF80135EBE72046BDE8F0812DE9F041EE
:1043200017468CB2BDB280460E462046012101F0F0
:10433000CBF82846012101F0C7F82046012101F001
:10434000D4F82846012101F0D0F82046002101F0E0
:10435000CCF82846002101F0C8F82846012101F0D8
:10436000C4F82046012101F0C0F82846002101F0E0
:10437000BCF85FFA88F30122F9B2F0B201F0F8F864
:104380002846012101F0B1F80021204601F09CF8F7
:10439000204601F0C3F82846002101F0A6F8204687
:1043A000BDE8F04101F0BAB838B585B20021284621
:1043B00001F08AF864240A2000F03EFC284601F04F
:1043C000ADF808B1013CF6D138BD2DE9F04184B219
:1043D0000E460546B7B22046002101F075F8384672
:1043E000012101F071F8082231462846FFF778FFD5
:1043F00001214FEA0028204601F066F820460121FD
:1044000001F073F82046002101F06FF838460121D1
:1044100001F06BF83846002101F067F820460021D2
:1044200001F052F8082231462846FFF759FF48EAC2
:104430000000BDE8F08138B585B20C46A4B228462C
:10444000012101F041F82046012101F03DF8284604
:10445000012101F04AF82046012101F046F82046EA
:104460000021BDE8384001F040B8000070B50C4CA8
:104470000C4D21682A680320FFF750FF2068FFF7E2
:1044800093FF29682068FFF7A0FF29680646206887
:10449000FFF7D1FF304601F073FB41EC100B70BD0C
:1044A00038E40320B8E4032008B5FFF7DFFF0BA3CF
:1044B000D3E9002351EC100B01F0C8FB09A3D3E9A9
:1044C000002301F00FFA044BC3E9000141EC100B8B
:1044D00008BD00BFAFF30080B0E403203BDF4F8D89
:1044E000976E923F3333333333B3434037B50E20A7
:1044F00001F027F8184B194C18605A2340F6FF7248
:10450000002100934B2300F08BFB154B1860FFF745
:10451000CBFF144B0F2083ED000B00F0FFFF20605A
:1045200088B111490B680322013393FBF2F202EBCD
:1045300042029B1A0B602546236823B10F2000F02E
:10454000EDFF2860F8E7FFF783FE0A2003B0BDE81F
:10455000304000F071BB00BFACE40320C4E4032092
:10456000BCE40320B0E40320C0E4032000F012B850
:1045700000F010B808B5024B1B689B68019308BD9A
:104580006802030008B5024B1B68DB68019308BD95
:104590006802030008B5024B1B681B68019308BD45
:1045A0002C02030008B5024B1B685B68019308BD31
:1045B0002C02030008B5024B1B689B68019308BDE1
:1045C0002C02030008B5024B1B68DB68019308BD91
:1045D0002C02030008B5024B1B681B69019308BD40
:1045E0002C02030008B5024B1B685B69019308BDF0
:1045F0002C02030008B5024B1B681B6B019308BD1E
:104600002C02030008B5024B1B68DB69019308BD4F
:104610003002030008B5024B1B681B6A019308BDFA
:104620003002030008B5024B1B685B68019308BDAC
:104630001802030008B5024B1B685B69019308BDB3
:104640001802030008B5024B1B689B68019308BD64
:104650004802030008B5024B1B681B69019308BDA3
:104660004802030008B5024B1B685B69019308BD53
:104670004802030008B5024B1B681B6B019308BD81
:104680004802030008B5024B1B685B6C019308BD30
:104690004802030008B5024B1B685B69019308BD23
:1046A0006402030008B5024B1B681B68019308BD38
:1046B0003C02030008B5024B1B68DB68019308BD90
:1046C0003C02030008B5024B1B681B69019308BD3F
:1046D0003C02030008B5024B1B685B69019308BDEF
:1046E0003C02030008B5024B1B689B69019308BD9F
:1046F0003C02030008B5024B1B68DB69019308BD4F
:104700003C02030008B5024B1B681B6A019308BDFD
:104710003C02030008B5024B1B689B6A019308BD6D
:104720003C02030008B5024B1B681B6A019308BDDD
:104730002802030008B5024B1B685B6A019308BDA1
:104740002802030008B5024B1B689B6A019308BD51
:104750002802030008B5024B1B68DB6A019308BD01
:104760002802030008B5024B1B681B6B019308BDB0
:104770002802030008B5024B1B685B6B019308BD60
:104780002802030008B5024B1B681B6C019308BD8F
:104790002802030008B5024B1B681B68019308BD83
:1047A0004C02030008B5024B1B685B68019308BD0F
:1047B0004C02030008B5024B1B681B69019308BD3E
:1047C0004C02030008B5024B1B685B69019308BDEE
:1047D0004C02030008B5024B1B689B69019308BD9E
:1047E0004C02030008B5024B1B68DB69019308BD4E
:1047F0004C02030008B5024B1B681B6A019308BDFD
:104800004C02030008B5024B1B685B68019308BDAE
:104810002002030008B5024B1B685B69019308BDC9
:104820002002030008B5034B1B68D3F888300193BE
:1048300008BD00002002030008B5034B1B68D3F835
:104840009430019308BD00002002030008B5024B1C
:104850001B685B68019308BD4002030008B5024B6A
:104860001B689B68019308BD4002030008B5024B1A
:104870001B68DB68019308BD4002030008B5024BCA
:104880001B681B69019308BD4002030008B5024B79
:104890001B685B69019308BD4002030008B5024B29
:1048A0001B689B69019308BD4002030008B5024BD9
:1048B0001B68DB69019308BD4002030008B5024B89
:1048C0001B681B6A019308BD4002030008B5024B38
:1048D0001B689B6A019308BD4002030008B5024BA8
:1048E0001B681B6B019308BD4002030008B5024B17
:1048F0001B685B6B019308BD4002030008B5024BC7
:104900001B681B68019308BD4402030008B5024BF5
:104910001B685B68019308BD4402030008B5024BA5
:104920001B68DB6B019308BD4402030008B5024B12
:104930001B681B68019308BD1C02030008B5024BED
:104940001B685B68019308BD1C02030008B5024B9D
:104950001B689B68019308BD1C02030000221146DE
:104960004068FFF7ABBF002211464068FFF7BEBFAB
:1049700000224068FFF7B2BF002281F001014068C9
:10498000FFF794BF00231A4619464068FFF786BF19
:1049900000231A4619464068FFF778BF00221146E7
:1049A0004068FFF76BBF002211464068FFF756BF13
:1049B000002202214068FFF759BF00231A464068D1
:1049C000FFF744BF024B03225A60024A1A60704745
:1049D000CCE40320E4610D00704710B510210446BB
:1049E00000F031FE204610BD70B5084B0360044650
:1049F00000250E4640F80C5FFFF73CFE304626715E
:104A0000FFF700FEA560204670BD00BF18620D00D4
:104A10000079FFF7FFBD0000044B00204FF6FF7246
:104A2000187058809A80FFF7EDBE00BFD4E40320D1
:104A300010B504460068FFF781FF204610BD10B591
:104A40000446006808B1FFF779FF00232360A360E4
:104A5000636010BD38B504460D4600680131FFF7AC
:104A600075FF10B184E82100012038BD10B503683E
:104A7000044613B143688B4207D22046FFF7EAFF92
:104A800020B1A3680BB922681370012010BD70B566
:104A90000E46114604461546FFF7E8FF18B92046B2
:104AA000FFF7CDFF09E02A463146A560206801F0F6
:104AB00015FB2268A3680021D154204670BD38B58B
:104AC0000023044603604360836003730D4639B1DD
:104AD000084601F049FB294602462046FFF7D7FF6A
:104AE000204638BD884210B50B46044607D00968F9
:104AF00019B19A68FFF7CBFF01E0FFF7A0FF20464E
:104B000010BD10B500230446036043608360037347
:104B1000FFF7E8FF204610BD08B582680B4612B9C2
:104B200019B9012008BD11B90368187802E00068BE
:104B300001F010FBB0FA80F0400908BD02480023E4
:104B40000360FFF79FBD00BFDCE40320F8B5064615
:104B50000D468F180024BD420CD0336815F8011B98
:104B60009B6830469847002801DB0444F3E7002C9B
:104B700008BF04462046F8BD70B505460C460846F9
:104B800049B101F0F1FA2B68024621462846DB685C
:104B9000BDE87040184770BD03689B68184730B582
:104BA0008BB00B4600218DF82410012A98BF0A22F1
:104BB0000DF12304B3FBF2F505FB123303F0FF0301
:104BC000092B94BF30333733DBB2214604F8013967
:104BD0002B46002DEED1FFF7CFFF0BB030BD10B448
:104BE0002AB903685DF8044B9B68C9B21847D2B272
:104BF0005DF8044BFFF7D3BFFFF7F1BF014B024A4B
:104C00001A607047E0E4032093620D00024B1A68BB
:104C1000024B1A60704700BF3CE40320E4E4032029
:104C20008A4230B507D0039D441AED1A6C43521ADC
:104C300094FBF2F4E01830BD0021FFF7EBBD10B596
:104C40008368044613B1032201469847204610BDED
:104C500010B50446FFF7F3FF204610BD0348044A91
:104C600004490023836000F0E9BC00BFE8E40320AE
:104C7000A8E40320514C0D0008B50C4B33B100F0F3
:104C800067F903681B699847002809DC084B63B182
:104C900000F0E0F903681B699847002803DC08BDB1
:104CA000AFF30080F2E7AFF3008008BD0000000022
:104CB0000000000008B5FFF7DFFFFFF7BBFC014B6A
:104CC000186008BD38E7032007B5002300931A4693
:104CD0006FF07701FFF7B0FD03B05DF804FB000053
:104CE00007B543880A2B08D0502B09D1094B1B6804
:104CF0003BB103B05DF804EB1847FFF7E5FF06E0B2
:104D0000002300931A466FF07701FFF795FD03B07B
:104D10005DF804FBF8E4032010B5FFF783FC0446BC
:104D200001F0F0F9074B13B12046AFF300800021EA
:104D30000448FFF7F3FD00210348BDE81040FFF7EA
:104D400071BD00BF00000000E14C0D0010B588B03F
:104D500004466846FFF7B3FE694604A8FFF7D1FE94
:104D600004A8A047044604A8FFF762FE6846FFF7C0
:104D70005FFE204608B010BDF0B5102485B0074690
:104D80000E46154600212246684601F0B2F900227F
:104D900069461046ADF80040029703960195FFF76B
:104DA000B5FD05B0F0BD704710B51821044600F000
:104DB0004AFC204610BDF0B5037D062B8DB00E4693
:104DC00000F104074FF0000402D000F1080518E0DC
:104DD0000CAD394605F8304D2F232A460A20FFF73F
:104DE00059FC284601F0C0F933680246DB682946C1
:104DF000304698470FE024B12E213046FFF7CCFE15
:104E0000044415F8011D0A223046FFF7F5FEBD42A5
:104E10000444F0D120460DB0F0BD000010B5054BA4
:104E20000446112240F8043B002101F062F92046BB
:104E300010BD00BF34630D000346074A10B543F8A8
:104E4000042B01F1100251F8044B43F8044B91423A
:104E5000F9D10A781A7010BD34630D0010B59DF8B1
:104E6000084044EA032343EA024242EA0161042380
:104E70004160037510BD37B50D788B784A78C978D5
:104E800000912946FFF7EAFF03B030BD4174704737
:104E9000704708B50021007CFFF79CFC30EA200039
:104EA00028BF4FF0FF3008BD08B50121007CFFF797
:104EB00091FC30EA200028BF4FF0FF3008BD08B554
:104EC000007CFFF77FFC20EAE07008BD08B5007C9D
:104ED000FFF770FC20EAE07008BD007CFFF78ABC99
:104EE00010B51421044600F0AEFB204610BD38B5C5
:104EF0000446007C0D46FFF765FC002801DC607C61
:104F000028B12946207CFFF76DFC20EAE07038BD0F
:104F100010B50446002363604FF47A73A360054B19
:104F2000236001230846217463741146FFF732FCA5
:104F3000204610BD48630D000022007CFFF732BC04
:104F400010B514220446002101F0D3F8204610BD0C
:104F500030B50E4D87B001A8FFF7F2FF296811F0B8
:104F6000010410D12846FFF79EF860B101AA21463E
:104F70000748FFF7CDFF2846FFF79AF8054A06498C
:104F8000034800F05BFB024807B030BDFCE403209F
:104F900000E50320A8E40320914E0D007047417402
:104FA000704708B5007CFFF7B5FB20EAE07008BD4C
:104FB00008B5007CFFF786FB20EAE07008BD08B565
:104FC000007CFFF78FFB30EA200028BF4FF0FF3056
:104FD00008BD08B5007CFFF77DFB30EA200028BF44
:104FE0004FF0FF3008BD007CFFF784BB10B51421E3
:104FF000044600F028FB204610BD70B5457C0446F1
:105000000E4625B9007CFFF785FB002805DD3146FB
:10501000207CBDE87040FFF74DBB284670BD000006
:1050200010B5044608461146002262604FF47A72B9
:10503000A260054A22600122207462741A46FFF7BA
:1050400031FB204610BD00BF78630D00007CFFF7E8
:1050500059BB0000F8B5194C25684DB98420FFF7FD
:105060001CF8064618B18422294601F042F8266051
:10507000134D2E684EB98420FFF70FF8074618B17C
:105080008422314601F035F82F600E4F396811F057
:10509000010611D13846FFF706F868B122682B687F
:1050A00009483146FFF7BCFF3846FFF701F8074AC9
:1050B0000749054800F0C2FA0348F8BD30E503206F
:1050C00028E503202CE5032014E50320A8E40320B1
:1050D0009D4F0D007047F8B5064615460C468F18D3
:1050E000BC4206D0336814F8011B9B6830469847D1
:1050F000F6E72846F8BD0022007CFFF713BB00212D
:10510000007CFFF717BB0021007CFFF71BBB0021D1
:10511000007CFFF71FBB0021007CFFF723BB10B50D
:105120001421044600F08FFA204610BD10B5044645
:105130004FF47A730846A3600021044B2074616029
:105140002360FFF71FFB204610BD00BFA8630D00C2
:105150000021007CFFF70EBB002211464068FFF7DC
:10516000ADBB002211464068FFF7C0BB002240687B
:10517000FFF7B4BB002281F001014068FFF796BB46
:1051800000231A4601214068FFF788BB00231A4616
:1051900019464068FFF77ABB002211464068FFF7C6
:1051A0006DBB002211464068FFF758BB0022022168
:1051B0004068FFF75BBB00231A464068FFF746BB19
:1051C00038B5054688B104684CB1A3681BB1032209
:1051D0002146204698471021204600F034FA284600
:1051E0001421BDE8384000F02EBA38BD10B1036874
:1051F0005B681847704710B503680446BBB1586830
:10520000FFF720FA78B923685A7C12B95868FFF77B
:1052100021FA23685868FFF725FA206800232360E5
:1052200028B1FFF7CDFF206808B1FFF7C9FF20467E
:1052300010BD000038B50C4B03600446D0F8CC011B
:1052400008B1FEF72EFFD4F8C45135B12846FFF758
:10525000D2FF0421284600F0F6F9A06808B1FFF754
:10526000C5FF204638BD00BFD0630D0038B50E4CD9
:105270000E4B23600025022304F5E4706360A560F3
:10528000C4F8C451C4F8C851FFF7FCF9084BC4F87E
:10529000CC5184F8D05123602046064A0649BDE827
:1052A000384000F0CBB900BF34E5032038640D006E
:1052B000D0630D00A8E4032035520D0000221146F2
:1052C0004068FFF7DBBA002211464068FFF7F6BAE4
:1052D000002211464068FFF709BB00224068FFF733
:1052E000FDBA002281F001014068FFF7DFBA002318
:1052F0001A4619464068FFF7D1BA00231A461946E4
:105300004068FFF7C3BA002211464068FFF7A6BA0B
:10531000002202214068FFF7A9BA00231A4640681C
:10532000FFF794BA024B04225A60024A1A6070478F
:1053300008E7032004640D0000231A464068FFF7C5
:1053400085BA002202214068FFF790BA0022114678
:105350004068FFF783BA002211464068FFF78EBA13
:1053600000231A4619464068FFF790BA00231A46F0
:1053700019464068FFF792BA002281F001014068A7
:10538000FFF794BA00224068FFF7A8BA002211463E
:105390004068FFF7ABBA002211464068FFF78EBAAB
:1053A0002DE9F043002495B016460D460746FFF759
:1053B00035FD214620220CA8009400F09AFE4023DF
:1053C0000C9321466B460CAA3046FFF7DBF80446E7
:1053D000002844D1024601216868FFF74FFA0221F4
:1053E000804622466868FFF749FA009E81462146BA
:1053F000002E34D0002932D17368022B02D00A2B40
:1054000009D02AE0B8F1000F27D07169384604317D
:10541000FFF731FD20E0B9F1000F1ED074691122B1
:1054200001A800F066FE06238DF8143001AD04F1EA
:1054300008031834186859682A4603C20833A3427F
:105440001546F7D101A906A807ADFFF7F5FC0FCD6A
:105450003C1D0FC42B6823700121F669C8E7009832
:10546000FFF788F8384615B0BDE8F083024B034AD1
:105470001A6000225A60704710E7032038640D005C
:1054800010B504460F48FFF7C3FA28B1A4F10B0387
:10549000022B01D8002010BD00F0B0F8FFF758FE35
:1054A00008B1012CF6D9FFF7D5FDFFF7CFFD18B1F4
:1054B000A4F10903012BEDD9232C8CBF002001207E
:1054C00010BD00BF18E70320232838B504460D4659
:1054D0000AD8FF2908D0FFF7D3FF28B12946204674
:1054E000BDE83840FFF766B838BD38B504460D460C
:1054F000FFF768F8FF2810D0062804D84D2323FAB8
:1055000000F0C30709D42046FFF7BAFF28B12946A7
:105510002046BDE83840FFF75DB838BD10B50446F9
:10552000FFF750F80438C0B2012808D92046FFF729
:10553000A7FF20B12046BDE81040FFF753B8002078
:1055400010BD0D2810B504469CBF0E34A4B22046F1
:10555000FFF796FF50B103212046FFF723F80328F9
:1055600004D12046BDE81040FFF744B8002010BD2C
:105570002DE9F04190461E46072407460D46B8F136
:10558000000F04D1C4F1070146FA01F101E046FA27
:1055900004F101F001013846FFF7A7FF0121284679
:1055A000FFF7A3FF00212846FFF79FFF14F1FF3408
:1055B000E5D2BDE8F081000070B50C4C0C4E0D4DED
:1055C00000212046FFF710FA20460B4C32462946B0
:1055D00000F034F801212046FFF706FA324629464A
:1055E0002046BDE8704000F029B800BF18E703204E
:1055F000A8E40320D9490D0028E7032038B50B4D56
:10560000296811F001040FD12846FEF74CFD58B16E
:1056100021460748FFF78AFD2846FEF749FD054A5F
:105620000549034800F00AF8014838BD3CE703206B
:1056300040E70320A8E40320D5500D000B460146A7
:10564000184600F03DBDFEF72ABD0000184B1A6851
:10565000D1075CBF01221A60164B1A68D2075CBFE3
:1056600001221A60144B1A68D0075CBF01221A602D
:10567000124B1A68D1075CBF01221A60104B1A68DE
:10568000D2075CBF01221A600E4B1A68D0075CBFBC
:1056900001221A600C4B1A68D1075CBF01221A6004
:1056A0000A4B1A68D2075CBF01221A60704700BF1C
:1056B00070E703206CE7032068E7032064E703201A
:1056C00060E703205CE7032058E7032054E703204A
:1056D000244B1A68D0075CBF01221A60224B1A685B
:1056E000D1075CBF01221A60204B1A68D2075CBF49
:1056F00001221A601E4B1A68D0075CBF01221A6093
:105700001C4B1A68D1075CBF01221A601A4B1A6839
:10571000D2075CBF01221A60184B1A68D0075CBF21
:1057200001221A60164B1A68D1075CBF01221A6069
:10573000144B1A68D2075CBF01221A60124B1A6818
:10574000D0075CBF01221A60104B1A68D1075CBFFA
:1057500001221A600E4B1A68D2075CBF01221A6040
:10576000704700BFA0E703209CE7032098E70320D1
:1057700094E7032090E703208CE7032088E70320C9
:1057800084E7032080E703207CE7032078E70320F9
:1057900074E70320244B1A68D0075CBF01221A600B
:1057A000224B1A68D1075CBF01221A60204B1A688D
:1057B000D2075CBF01221A601E4B1A68D0075CBF7B
:1057C00001221A601C4B1A68D1075CBF01221A60C3
:1057D0001A4B1A68D2075CBF01221A60184B1A686C
:1057E000D0075CBF01221A60164B1A68D1075CBF54
:1057F00001221A60144B1A68D2075CBF01221A609A
:10580000124B1A68D0075CBF01221A60104B1A684D
:10581000D1075CBF01221A600E4B1A68D2075CBF29
:1058200001221A60704700BFD0E70320CCE70320B5
:10583000C8E70320C4E70320C0E70320BCE7032038
:10584000B8E70320B4E70320B0E70320ACE7032068
:10585000A8E70320A4E70320184B1A68D1075CBF10
:1058600001221A60164B1A68D2075CBF01221A6027
:10587000144B1A68D0075CBF01221A60124B1A68D9
:10588000D1075CBF01221A60104B1A68D2075CBFB7
:1058900001221A600E4B1A68D0075CBF01221A6001
:1058A0000C4B1A68D1075CBF01221A600A4B1A68B8
:1058B000D2075CBF01221A60704700BFF0E70320E7
:1058C000ECE70320E8E70320E4E70320E0E7032018
:1058D000DCE70320D8E70320D4E7032081F0004170
:1058E00002E000BF83F0004330B54FEA41044FEAC5
:1058F000430594EA050F08BF90EA020F1FBF54EA60
:10590000000C55EA020C7FEA645C7FEA655C00F0FB
:10591000E2804FEA5454D4EB5555B8BF6D420CDDCC
:105920002C4480EA020281EA030382EA000083EA4F
:10593000010180EA020281EA0303362D88BF30BDEF
:1059400011F0004F4FEA01314FF4801C4CEA113145
:1059500002D0404261EB410113F0004F4FEA0333A4
:105960004CEA133302D0524263EB430394EA050F2F
:1059700000F0A780A4F10104D5F1200E0DDB02FA9E
:105980000EFC22FA05F2801841F1000103FA0EF232
:10599000801843FA05F359410EE0A5F120050EF1F8
:1059A000200E012A03FA0EFC28BF4CF0020C43FA29
:1059B00005F3C01851EBE37101F0004507D54FF036
:1059C000000EDCF1000C7EEB00006EEB0101B1F586
:1059D000801F1BD3B1F5001F0CD349085FEA3000CC
:1059E0004FEA3C0C04F101044FEA445212F5800FD7
:1059F00080F09A80BCF1004F08BF5FEA500C50F174
:105A0000000041EB045141EA050130BD5FEA4C0C56
:105A1000404141EB010111F4801FA4F10104E9D1DF
:105A200091F0000F04BF01460020B1FA81F308BFD6
:105A30002033A3F10B03B3F120020CDA0C3208DDA2
:105A400002F1140CC2F10C0201FA0CF021FA02F17D
:105A50000CE002F11402D8BFC2F1200C01FA02F1ED
:105A600020FA0CFCDCBF41EA0C019040E41AA2BF12
:105A700001EB0451294330BD6FEA04041F3C1CDADA
:105A80000C340EDC04F11404C4F1200220FA04F0FA
:105A900001FA02F340EA030021FA04F345EA0301A4
:105AA00030BDC4F10C04C4F1200220FA02F001FA66
:105AB00004F340EA0300294630BD21FA04F02946E8
:105AC00030BD94F0000F83F4801306BF81F4801181
:105AD0000134013D4EE77FEA645C18BF7FEA655CF4
:105AE00029D094EA050F08BF90EA020F05D054EAC6
:105AF000000C04BF1946104630BD91EA030F1EBFCB
:105B00000021002030BD5FEA545C05D140004941CE
:105B100028BF41F0004130BD14F580043CBF01F5C1
:105B2000801130BD01F0004545F0FE4141F47001A7
:105B30004FF0000030BD7FEA645C1ABF1946104682
:105B40007FEA655C1CBF0B46024650EA013406BF83
:105B500052EA033591EA030F41F4002130BD00BF42
:105B600090F0000F04BF0021704730B54FF48064FF
:105B700004F132044FF000054FF0000150E700BF80
:105B800090F0000F04BF0021704730B54FF48064DF
:105B900004F1320410F0004548BF40424FF00001CC
:105BA0003EE700BF42004FEAE2014FEA31014FEA0F
:105BB00002701FBF12F07F4393F07F4F81F060515E
:105BC000704792F0000F14BF93F07F4F704730B5CD
:105BD0004FF4607401F0004521F0004120E700BF60
:105BE00050EA010208BF704730B54FF000050AE0E7
:105BF00050EA010208BF704730B511F0004502D5E8
:105C0000404261EB41014FF4806404F132045FEAE9
:105C1000915C3FF4DCAE4FF003025FEADC0C18BF8E
:105C200003325FEADC0C18BF033202EBDC02C2F184
:105C3000200300FA03FC20FA02F001FA03FE40EA16
:105C40000E0021FA02F11444C1E600BF70B54FF016
:105C5000FF0C4CF4E06C1CEA11541DBF1CEA1355F8
:105C600094EA0C0F95EA0C0F00F0DEF82C4481EA60
:105C7000030621EA4C5123EA4C5350EA013518BF80
:105C800052EA033541F4801143F4801338D0A0FB6D
:105C900002CE4FF00005E1FB02E506F00042E0FB1A
:105CA00003E54FF00006E1FB03569CF0000F18BF20
:105CB0004EF0010EA4F1FF04B6F5007F64F54074C8
:105CC00004D25FEA4E0E6D4146EB060642EAC6215B
:105CD00041EA55514FEAC52040EA5E504FEACE2EC8
:105CE000B4F1FD0C88BFBCF5E06F1ED8BEF1004FCB
:105CF00008BF5FEA500E50F1000041EB045170BD47
:105D000006F0004646EA010140EA020081EA03018A
:105D1000B4EB5C04C2BFD4EB0C0541EA045170BD86
:105D200041F480114FF0000E013C00F3AB8014F100
:105D3000360FDEBF002001F0004170BDC4F1000449
:105D4000203C35DA0C341BDC04F11404C4F12005CA
:105D500000FA05F320FA04F001FA05F240EA020025
:105D600001F0004221F0004110EBD37021FA04F65B
:105D700042EB06015EEA430E08BF20EAD37070BD15
:105D8000C4F10C04C4F1200500FA04F320FA05F074
:105D900001FA04F240EA020001F0004110EBD37076
:105DA00041F100015EEA430E08BF20EAD37070BDE6
:105DB000C4F1200500FA05F24EEA020E20FA04F3BF
:105DC00001FA05F243EA020321FA04F001F000416E
:105DD00021FA04F220EA020000EBD3705EEA430EDF
:105DE00008BF20EAD37070BD94F0000F0FD101F00E
:105DF0000046400041EB010111F4801F08BF013C47
:105E0000F7D041EA060195F0000F18BF704703F084
:105E10000046520043EB030313F4801F08BF013D0B
:105E2000F7D043EA0603704794EA0C0F0CEA1355C7
:105E300018BF95EA0C0F0CD050EA410618BF52EA81
:105E40004306D1D181EA030101F000414FF0000087
:105E500070BD50EA410606BF1046194652EA430695
:105E600019D094EA0C0F02D150EA013613D195EA09
:105E70000C0F05D152EA03361CBF104619460AD151
:105E800081EA030101F0004141F0FE4141F470015B
:105E90004FF0000070BD41F0FE4141F4780170BD4B
:105EA00070B54FF0FF0C4CF4E06C1CEA11541DBFB0
:105EB0001CEA135594EA0C0F95EA0C0F00F0A7F8B2
:105EC000A4EB050481EA030E52EA03354FEA0131DF
:105ED00000F088804FEA03334FF0805545EA1313F2
:105EE00043EA12634FEA022245EA111545EA1065BA
:105EF0004FEA00260EF000419D4208BF964244F151
:105F0000FD0404F5407402D25B084FEA3202B61A6F
:105F100065EB03055B084FEA32024FF480104FF443
:105F2000002CB6EB020E75EB030E22BFB61A7546B7
:105F300040EA0C005B084FEA3202B6EB020E75EB4A
:105F4000030E22BFB61A754640EA5C005B084FEAB2
:105F50003202B6EB020E75EB030E22BFB61A75467F
:105F600040EA9C005B084FEA3202B6EB020E75EB8A
:105F7000030E22BFB61A754640EADC0055EA060E4B
:105F800018D04FEA051545EA16754FEA06164FEA8E
:105F9000C30343EA52734FEAC2025FEA1C1CC0D13A
:105FA00011F4801F0BD141EA00014FF000004FF0C7
:105FB000004CB6E711F4801F04BF01430020B4F188
:105FC000FD0C88BFBCF5E06F3FF6AFAEB5EB030C40
:105FD00004BFB6EB020C5FEA500C50F1000041EB3D
:105FE000045170BD0EF0004E4EEA113114EB5C040A
:105FF000C2BFD4EB0C0541EA045170BD41F48011DD
:106000004FF0000E013C90E645EA060E8DE60CEAE4
:10601000135594EA0C0F08BF95EA0C0F3FF43BAF01
:1060200094EA0C0F0AD150EA01347FF434AF95EAB8
:106030000C0F7FF425AF104619462CE795EA0C0F9C
:1060400006D152EA03353FF4FDAE1046194622E769
:1060500050EA410618BF52EA43067FF4C5AE50EA43
:1060600041047FF40DAF52EA43057FF4EBAE12E733
:106070004FEA410212F5001215D211D56FF4787370
:10608000B3EB625212D94FEAC12343F0004343EA13
:10609000505311F0004F23FA02F018BF40427047EE
:1060A0004FF00000704750EA013005D111F0004078
:1060B00008BF6FF0004070474FF00000704700BF0E
:1060C00010B5054C13462CB10A4601460220AFF329
:1060D000008010BD204610BD0000000010B5431E1A
:1060E0000A44914204D011F8014B03F8014FF8E73C
:1060F00010BD02440346934202D003F8011BFAE7A5
:106100007047000038B5124B1C68A36B0546D3B925
:106110001820FEF70BFC43F20E33A06303804AF60F
:10612000CD33438041F2342383804EF26D63C380CC
:106130004DF6EC630381052343810B238381012208
:106140000023C0E90423A36B00221D615A6138BDFE
:10615000A0E4032010F8012B11F8013B012A28BF0D
:106160009A42F7D0D01A7047034613F8012B002A41
:10617000FBD1181A0138704721400D005D400D0019
:1061800089400D008D400D00000000007A65726F9F
:106190000074776F00706173737772643130300010
:1061A0004D41535445525F4C4150544F500034744C
:1061B0003536357733756678327200415454385627
:1061C00075773639520074656D70007374617400B0
:1061D0006D6F6465006D6F64654300000000000032
:1061E00000000000BB490D00B1490D00A7490D009A
:1061F0009D490D0091490D0085490D0079490D001B
:1062000071490D0067490D005D490D00A1530D0056
:106210000000000000000000D9490D00DB490D001E
:10622000626175640053657269616C0053657269DF
:10623000616C31007479706500706172616D00632A
:106240006D6400696400686E64007374726D00664A
:10625000696C74006C766C0061646448616E646C97
:1062600065720072656D6F766548616E646C65720B
:1062700000656E756D48616E646C657273004A539B
:106280004F4E53747265616D4C6F6748616E646CFC
:1062900065720061707000253031307520005D201E
:1062A000002564002C200028293A2000205B006390
:1062B0006F6465203D200025690064657461696C28
:1062C00073203D20000D0A0066006C6E00666E00B3
:1062D000636F64650064657461696C006E6F6E6500
:1062E00000747261636500696E666F007761726E3B
:1062F000006572726F720070616E696300616C6C30
:10630000005A00252B3033643A2530327500255968
:106310002D256D2D25645425483A254D3A255325C4
:106320007A0061736374696D65000000000000000D
:1063300000000000B74D0D00A74D0D00A94D0D0048
:106340000000000000000000914E0D00E14E0D0025
:10635000EF4E0D004D4B0D00CD4E0D00934E0D0038
:10636000A94E0D00DB4E0D00BF4E0D008D4E0D00F1
:1063700000000000000000009D4F0D00ED4F0D00DB
:10638000FB4F0D004D4B0D00B14F0D00D34F0D00D5
:10639000BF4F0D00E74F0D009F4F0D00A34F0D00A5
:1063A0000000000000000000D5500D001F510D003E
:1063B000F7500D00D7500D00FF500D0007510D0094
:1063C0000F510D0017510D000000000000000000EB
:1063D000B7510D00AD510D00A3510D0099510D00A5
:1063E0008D510D0081510D0075510D006D510D0045
:1063F00063510D0059510D00A1530D000000000024
:10640000000000001B530D0011530D0007530D0039
:10641000BD520D00FB520D00EF520D00E3520D0076
:10642000DB520D00D1520D00C7520D00A1530D00DB
:10643000000000000000000039530D0043530D0020
:106440004D530D0057530D0061530D006D530D005A
:1064500079530D0085530D008D530D0097530D009A
:10646000A1530D000000000000000000000000002B
:10647000000000000000000000000000000000001C
:10648000000000000000000000000000000000000C
:1064900000000000000000000000000000000000FC
:1064A00000000000000000000000000000000000EC
:1064B00000000000000000000000000000000000DC
:1064C00000000000B7400D006D450D0071450D0046
:1064D000C5490D00194A0D003D4B0D00FD4B0D0047
:1064E0000D4C0D005D4C0D006D520D0025530D003F
:1064F0006D540D00B9550D004D560D00D1560D00CF
:1065000095570D0059580D000000000000000000D4
:106510000100000022630D000000000064640D0013
:1065200084640D00A4640D00000000000000000061
:106530000000000000000000D9610D000000000014
:10654000000000000000000000000000000000004B
:10655000000000000000000000000000000000003B
:10656000000000000000000000000000000000002B
:0C657000000000000000000040E40320D8
:10657C00FFFFFFFF00000102030405060708090ADC
:10658C000B0C0D0E0F101112131415161718191AD7
:08659C001B1C1D1E1F2028001E
:0465A40078563412DF
:04000003D0004020C9
:00000001FF
